:020000040800F2
:10000000A82000206D1D00082D1C00082F1C0008D2
:10001000311C0008331C0008351C0008891D00082D
:10002000000000000000000000000000371C000875
:10003000391C0008000000003B1C00083D1C0008A3
:100040008D1D0008911D0008951D0008991D0008D0
:100050009D1D0008A11D0008A51D0008A91D000880
:10006000AD1D0008B11D0008B51D0008B91D000830
:10007000BD1D0008C11D0008C51D0008C91D0008E0
:10008000CD1D0008D11D0008D51D0008D91D000890
:10009000DD1D0008E11D0008E51D0008E91D000840
:1000A000ED1D0008F11D0008F51D0008F91D0008F0
:1000B000FD1D0008011E0008051E0008091E00089D
:1000C0000D1E0008111E0008151E0008191E00084C
:1000D0001D1E0008211E0008251E0008291E0008FC
:1000E0002D1E0008311E0008451C0008351E0008A2
:1000F000391E00084F1C00083D1E0008411E000864
:10010000451E0008491E00084D1E0008511E00082B
:10011000551E0008591E00085D1E0008611E0008DB
:10012000651E0008691E00086D1E0008711E00088B
:10013000751E0008791E00087D1E0008811E00083B
:10014000851E0008891E00088D1E0008911E0008EB
:10015000951E0008991E00089D1E0008A11E00089B
:10016000A51E0008A91E0008AD1E0008B11E00084B
:10017000B51E000800000000B91E000800000000C5
:10018000BD1E0008C11E0008C51E0008C91E0008CB
:10019000CD1E0008D11E0008D51E0008D91E00087B
:1001A000DD1E0008E11E0008E51E0008E91E00082B
:1001B000ED1E0008F11E0008F51E0008F91E0008DB
:1001C000FD1E0008011F0008051F0008091F000888
:1001D0000D1F0008111F0008151F0008191F000837
:1001E0001D1F0008211F0008251F0008291F0008E7
:1001F0002D1F00082DE9FC470500002D01D101202D
:100200004DE3DFF88C793C6814F00C04DFF8A88922
:10021000D8F8006016F003062878C00640F1A680E2
:10022000002C03D00C2C6CD1012E6AD1DFF89C98E5
:10023000D9F80000800704D5E869002801D1012021
:100240002DE3D9F80000000704D5D9F8000010F01C
:10025000F00005E0DFF864090068000910F0F00024
:10026000696A88422DD2686A00F0B4FC002801D087
:10027000012014E3D9F8000050F00800C9F800008C
:10028000D9F8001031F0F001686A0143C9F8001094
:10029000DFF83C09016831F47F412A6A51EA022102
:1002A000016000F077FCDFF808190860DFF8040946
:1002B000006800F01FFD0100C9B2002956D0C0B28D
:1002C000EDE2D9F8000050F00800C9F80000D9F8B4
:1002D000001031F0F001686A0143C9F80010DFF83E
:1002E000F008016831F47F412A6A51EA0221016075
:1002F000002CD6D1686A00F06DFC0028D1D0012016
:10030000CDE2E869002844D0DFF8C097D9F80000B2
:1003100050F00100C9F8000000F01AFD8246D9F83B
:10032000000080070BD400F013FDB0EB0A00032897
:10033000F5D3D9F800008007F1D40320AFE2D9F853
:10034000000050F00800C9F80000D9F8001031F0A2
:10035000F001686A0143C9F80010DFF87408016809
:1003600031F47F412A6A51EA022101602878C007EE
:100370007BD5082C03D00C2C26D1032E24D1DFF8FA
:100380004C070068800370D5686800286DD1012093
:1003900085E2DFF83897D9F8000040084000C9F836
:1003A000000000F0D5FC8246D9F800008007DDD5BA
:1003B00000F0CEFCB0EB0A000328F5D3D9F800001A
:1003C0008007F1D503206AE26868B0F5803F06D166
:1003D000DFF8F806016851F48031016018E06868C0
:1003E000B0F5A02F0AD1DFF8E406016851F48021AE
:1003F0000160016851F48031016009E0DFF8CC064A
:10040000016831F480310160016831F480210160BC
:100410006868002814D000F09BFC8146DFF8ACA689
:10042000DAF80000800320D400F092FCB0EB090061
:100430006528F3D3DAF800008003EFD403202EE21E
:1004400000F086FC8146DFF884A6DAF8000080031D
:100450000BD500F07DFCB0EB09006528F3D3DAF88A
:1004600000008003EFD5032019E22878800718D513
:10047000042C03D00C2C24D1022E22D1DFF84C0600
:100480000068400504D5E868002801D1012006E293
:10049000DFF83C07016831F0FE412A6951EA026148
:1004A00001602878000777D5686900285ED0A869C0
:1004B00000283FD1DFF80407016831F01001016026
:1004C0003EE0E86800281FD0DFF80046206850F4BE
:1004D0008070206000F03CFC06002068400509D4D4
:1004E00000F036FC801B0328F7D320684005F4D4C5
:1004F0000320D4E1DFF8D806016831F0FE412A6913
:1005000051EA02610160CCE7DFF8C045206830F4B1
:100510008070206000F01CFC060020684005C0D5FB
:1005200000F016FC801B0328F7D320684005F4D5A3
:100530000320B4E1DFF88406016851F01001016086
:10054000DFF87846206850F00100206000F000FCE1
:100550000600206880071FD400F0FAFB801B0828E3
:10056000F7D320688007F4D4032098E1DFF84C46E5
:10057000206840084000206000F0EAFB0600206888
:10058000800709D500F0E4FB801B0828F7D320681A
:100590008007F4D5032082E12878400740F1D88015
:1005A0000026DFF820462068C00009D4206850F0FB
:1005B00080502060206810F0805000900098012644
:1005C000DFF80496D9F80000C00518D4D9F8000067
:1005D00050F48070C9F8000000F0BAFB8246D9F8E8
:1005E0000000C0050BD400F0B3FBB0EB0A000328F9
:1005F000F5D3D9F80000C005F1D403204FE1287AE3
:10060000C00714D5287A40070AD5DFF8C00501686D
:1006100051F004010160016851F00101016010E036
:10062000DFF8A805016851F00101016009E0DFF879
:100630009C050168490849000160016831F0040126
:100640000160A868002849D000F082FB8146DFF8ED
:100650007CA5DAF8000080070DD400F079FBB0EB40
:10066000090041F289318842F1D3DAF800008007AD
:10067000EDD4032013E1287A000617D5DAF800003C
:1006800050F08000CAF80000DAF80000000558D4E5
:1006900000F05EFBB0EB090041F289318842F3D3F0
:1006A000DAF800000005EFD40320F8E0DAF80000E3
:1006B00030F08000CAF80000DAF80000000540D5EC
:1006C00000F046FBB0EB090041F289318842F3D3D8
:1006D000DAF800000005EFD50320E0E000F038FB79
:1006E0008146DFF8E8A4DAF8000080070DD500F0B5
:1006F0002FFBB0EB090041F289318842F1D3DAF8DF
:1007000000008007EDD50320C9E0DAF800000006FC
:1007100017D5DAF8000030F08000CAF80000DAF8E7
:10072000000000050DD500F013FBB0EB090041F20D
:1007300089318842F3D3DAF800000005EFD50320B1
:10074000ADE0F6B2012E03D1206830F08050206079
:10075000287880062ED5A86A002815D0DFF86044D6
:10076000206850F00100206000F0F2FA06002068D6
:1007700080071FD400F0ECFA801B0328F7D3206811
:100780008007F4D403208AE0DFF83444206840086E
:100790004000206000F0DCFA06002068800709D5E0
:1007A00000F0D6FA801B0328F7D320688007F4D521
:1007B000032074E0E86A002870D0386810F00C005C
:1007C0000C286ED0E86A02284CD1DFF8004320687C
:1007D00030F08070206000F0BBFA060020688001D5
:1007E00009D500F0B5FA801B0328F7D320688001F3
:1007F000F4D5032053E0D8F80010DFF8C804014016
:10080000286B0143686B401E51EA0011A86B51EA46
:100810000021286C4008401E51EA4051686C400895
:10082000401E51EA4061E86B51EAC061C8F800100F
:10083000206850F080702060D8F8000050F0807080
:10084000C8F8000000F084FA05002068800125D473
:1008500000F07EFA401B0328F7D320688001F4D40F
:1008600003201CE0994D286830F08070286000F06B
:100870006FFA04002868800109D500F069FA001BAE
:100880000328F7D328688001F4D5032007E0D8F8BF
:100890000010DFF834040140C8F800100020BDE863
:1008A000F687E86A012801D10120F8E7D8F80000AE
:1008B00010F003012A6B914222D110F0F0016A6B13
:1008C000521EB1EB021F1BD110F4FE41AA6BB1EB1B
:1008D000022F15D110F07841EA6BB1EBC26F0FD146
:1008E00010F4C0012A6C5208521EB1EB425F07D1CE
:1008F00010F0C060696C4908491EB0EB416FCDD063
:100900000120CCE72DE9F84304000F000025002C5E
:1009100001D10120D7E0DFF8B463306810F00F0098
:10092000B8420BD2306800090001384330603068AB
:1009300010F00F00B84201D00120C4E020788007F9
:100940000CD59349086810F0F000A268904205D2D7
:100950000A6832F0F002A06802430A602078C007FB
:100960006CD56068032818D158480068800101D40C
:100970000120A8E000F06EF9DFF85413884236D366
:100980008348016811F0F00F31D1016831F0F001B6
:1009900051F080010160802529E06068022805D1BE
:1009A0004A480068800310D401208CE06068002869
:1009B00005D146480068800707D4012083E04348FA
:1009C0000068400501D401207DE000F081F8DFF8E7
:1009D000001388420BD36E48016811F0F00F06D166
:1009E000016831F0F00151F0800101608025DFF8ED
:1009F000A081D8F800108908890060680143C8F810
:100A0000001000F0A5F98146D8F8000010F00C00A5
:100A10006168B0EB810F11D000F09AF9B0EB0900DA
:100A200041F289318842EFD3D8F8000010F00C0071
:100A30006168B0EB810FE7D0032044E0802D04D142
:100A40005348016831F0F0010160207880070CD52F
:100A50004F49A0680A6812F0F002904205D20A6875
:100A600032F0F002A06802430A60306810F00F0014
:100A700087420BD23068000900013843306030688B
:100A800010F00F00B84201D001201CE02078400790
:100A900006D53F490A6832F4E062E06802430A6022
:100AA0002078000707D53A48016831F4605122697F
:100AB00051EAC201016000F06DF83D4908603D480F
:100AC000006800F017F9BDE8F28300000010024052
:100AD00010B4002300212E48006810F00C00364AA4
:100AE000146814F00304002803D00C2816D1012C3C
:100AF00014D1DFF8E4311C68240704D42F4B1B68A1
:100B0000C3F3032302E01B68C3F30313DFF8CC41F4
:100B100054F8233000280AD1190008E0042802D133
:100B2000DFF8BC1103E0082801D1DFF8B4110C286C
:100B30002AD1106810F003001168C1F30311491C99
:100B4000022802D0032809D011E0DFF89401B0FB9D
:100B5000F1F11068C0F3062041430EE0DFF8800198
:100B6000B0FBF1F11068C0F30620414305E0B3FB90
:100B7000F1F11068C0F3062041431068C0F34160F2
:100B8000401C4000B1FBF0F1080010BC70470000B1
:100B90000810024080B5FFF79BFFDFF84811DFF82F
:100BA00034211268C2F30312895CC84002BD000000
:100BB00004000020000000200C10024094100240AD
:100BC00098100240581002400070004090100240FF
:100BD000041002407CB505000024454E3068C0007A
:100BE00002D500F0BBF80EE0306850F08050306065
:100BF000306810F080500090009800F0AFF8316835
:100C000031F080513160002802D0B0F5007F07D16B
:100C1000812D10D3A12D01D302240CE001240AE080
:100C2000812D01D3032406E0802D01D1022402E0AE
:100C3000702D00D1012425480168090909012143CB
:100C40000160006810F00F00A04201D0012000E018
:100C5000002076BD25490A6812F003020868C0F337
:100C60000310401C012A13D022D3032A08D01FD21C
:100C70001B4AB2FBF0F20868C0F30620424318E0BA
:100C8000174AB2FBF0F20868C0F30620424310E0B6
:100C900011480268120704D413480068C0F3032007
:100CA00002E00068C0F303100C4A52F8202000E074
:100CB00000220868C0F34160401C4000B2FBF0F025
:100CC000704700000C809F01FCFFEEFE00200240F8
:100CD00001B4C4040810024000100240EC1B0008DC
:100CE0000024F4005C1D0008941002400C10024027
:100CF0005810024038B50400002512490878002831
:100D00001BD04FF47A700978B0FBF1F00E490968F6
:100D1000B1FBF0F000F006F900280CD1082C08D245
:100D2000002221005FF0FF3000F0E7F80748046080
:100D300004E0012502E0012500E001252800C0B201
:100D400032BD00BF08000020040000200000002089
:100D500001480068704700BFA4000020DFF8A80029
:100D6000006810F4C060704770B50400DFF8986048
:100D7000356815F4C06500F038F8B0F5004F01D1C2
:100D800001202BE0DFF884000068000401D5012079
:100D900024E0A54201D1002020E0306830F4C0609A
:100DA00004433460DFF868000068DFF86810B0FBC7
:100DB000F1F1322041430A20B1FBF0F0401C00E089
:100DC000401EDFF854100A68520501D50028F7D1FB
:100DD0000868400501D5032000E0002070BD0F48E1
:100DE000016851F48041016070470D480068C104FA
:100DF00002D54FF4805005E0000402D44FF40040C7
:100E000000E0002070470000007000400C700040BF
:100E100004000020A086010014700040087000400B
:100E20001070004010F00700404B1A684FF6FF01A9
:100E30000A403F4951EA00210A431A6070473B4883
:100E40000068C0F302207047010049B2002908D4AD
:100E5000012210F01F018A40364940B2400941F892
:100E600020207047020052B2002A04D44901324ABD
:100E700040B2115407E04901304A40B210F00F006F
:100E8000104400F8041C704710B410F00700D0F1B3
:100E90000703042B01D3032301E0D0F10703C41C93
:100EA000072C01D2002000E0001F012414FA03F3F4
:100EB0005B1E1940814014FA00F0401E10400843A8
:100EC00010BC704780B5411EB1F1807F01D3012075
:100ED0000EE0401E1A49086007215FF0FF30FFF75F
:100EE000C1FF00201749086007201749086000204B
:100EF00002BD80B5FFF796FF01BD70B504000D007F
:100F00001600FFF79CFF32002900FFF7BDFF01002C
:100F1000200040B2FFF7A6FF70BD80B540B2FFF7DA
:100F200093FF01BD80B5FFF7CDFF02BD0CED00E0E2
:100F30000000FA0500E100E000E400E018ED00E048
:100F400014E000E018E000E010E000E010B504005C
:100F5000002C01D1012035E094F83D00002805D196
:100F6000002084F83C00200000F0E8FA022084F819
:100F70003D00211D206800F0FDF9012084F84800A3
:100F8000012084F83E00012084F83F00012084F80D
:100F90004000012084F84100012084F84200012033
:100FA00084F84300012084F84400012084F84500BF
:100FB000012084F84600012084F84700012084F8CD
:100FC0003D00002010BD90F83D10012901D0012006
:100FD00042E0022180F83D100168C96851F001012A
:100FE0000268D1600168DFF8EC2091421CD00168F2
:100FF000B1F1804F18D00168DFF8DC20914213D0A6
:101000000168DFF8D82091420ED00168DFF8D020C7
:10101000914209D00168DFF8CC20914204D00168E8
:10102000DFF8C420914210D101688A68DFF8BC1053
:101030000A40062A0FD0B2F5803F0CD0016809683B
:1010400051F001010068016005E00168096851F094
:101050000101006801600020704710B50400002CF9
:1010600001D1012035E094F83D00002805D1002091
:1010700084F83C00200000F097FA022084F83D003C
:10108000211D206800F076F9012084F84800012035
:1010900084F83E00012084F83F00012084F84000DD
:1010A000012084F84100012084F84200012084F8E6
:1010B0004300012084F84400012084F84500012009
:1010C00084F84600012084F84700012084F83D00A0
:1010D000002010BD002C014000040040000800402A
:1010E000000C0040003401400040014007000100B6
:1010F00010B504002068006980071AD52068C06810
:10110000800716D57FF00200216808610120207752
:101110002068806910F0030F03D0200000F045FA2A
:1011200005E0200000F042FA200000F040FA002024
:1011300020772068006940071AD52068C0684007FA
:1011400016D57FF00400216808610220207720680E
:10115000806910F4407F03D0200000F026FA05E0FB
:10116000200000F023FA200000F021FA0020207770
:101170002068006900071AD52068C068000716D5E6
:101180007FF0080021680861042020772068C0698A
:1011900010F0030F03D0200000F007FA05E0200054
:1011A00000F004FA200000F002FA00202077206806
:1011B0000069C0061AD52068C068C00616D57FF041
:1011C000100021680861082020772068C06910F4A9
:1011D000407F03D0200000F0E8F905E0200000F097
:1011E000E5F9200000F0E3F900202077206800698D
:1011F000C0070AD52068C068C00706D57FF0010087
:1012000021680861200000F0A4FA20680069000647
:101210000AD52068C068000606D57FF080002168E6
:101220000861200000F0DCFA20680069C0050AD5DA
:101230002068C068000606D57FF4807021680861C8
:10124000200000F0CEFA2068006940060AD5206828
:10125000C068400606D57FF0400021680861200084
:1012600000F0C0FA2068006980060AD52068C068CE
:10127000800606D57FF0200021680861200000F07C
:10128000B2FA10BD38B50400002594F83C000128DE
:1012900001D102206DE0012084F83C00022084F896
:1012A0003D0020688268DFF8EC01024032F47F42A2
:1012B00020688260086800284DD010284BD0202874
:1012C00049D0302847D040283BD0502825D060282E
:1012D0002DD0702807D0B0F5805F03D0B0F5005F47
:1012E0000ED03DE03DE0CB684A688968206800F098
:1012F000E5F82068806850F077002168886030E069
:10130000CB684A688968206800F0D8F8206880684F
:1013100050F480402168886023E0CA6849682068EA
:1013200000F08BF85021206800F0ACF819E0CA6892
:101330004968206800F093F86021206800F0A2F866
:101340000FE0CA684968206800F077F840212068FB
:1013500000F098F805E00968206800F093F800E0D4
:101360000125012084F83D00002084F83C0028007D
:10137000C0B232BD10B40468DFF81C31984212D0FC
:10138000B0F1804F0FD0DFF8142190420BD0DFF87E
:101390001021904207D0DFF80C21904203D0DFF8F3
:1013A0000821904203D134F070044A6814439842F3
:1013B0001ED0B0F1804F1BD0DFF8E020904217D054
:1013C000DFF8DC20904213D0DFF8D82090420FD015
:1013D000DFF8D42090420BD0DFF8D020904207D025
:1013E000DFF8CC20904203D0DFF8C820904203D130
:1013F00034F44074CA68144334F080044A691443D6
:1014000004608A68C2620A68826298420FD0DFF87C
:10141000982090420BD0DFF89420904207D0DFF85C
:101420009020904203D0DFF88C20904201D10969CE
:1014300001630121416110BC704710B4046A036A62
:101440005B085B000362836933F0F00353EA021325
:1014500034F00A0421438361016210BC704710B468
:10146000036A33F0100303628369046A33F4704340
:1014700053EA023334F0A00454EA01148361046295
:1014800010BC704783680C4A134051F007011943A0
:101490008160704788FFCEFF002C014000040040AF
:1014A00000080040000C00400034014000400140B2
:1014B00000440140004801408FFFCFFF10B4846812
:1014C00034F47F44114351EA03212143816010BC6D
:1014D000704730B4002513E050F8042BD30744BF05
:1014E000A9F101039A18091F042942F8045BFAD2F2
:1014F00013468C0744BF15809B1CC90748BF1D704D
:1015000050F8041B0029E7D130BC704780B5234850
:10151000016851F001010160006810F001000090C5
:1015200000981F48016851F080510160006810F078
:10153000805000900098FFF752FC01BD80B5016813
:10154000184A914212D11548016851F400610160B6
:10155000006810F4006000900098002200212A200A
:10156000FFF7CBFC2A20FFF7D8FC15E00068B0F1AC
:10157000804F11D10A48016851F0010101600068F3
:1015800010F0010000900098002200212D20FFF7AC
:10159000B4FC2D20FFF7C1FC01BD0000601002402B
:1015A00058100240002C0140704770477047704748
:1015B00080B500F019F900F00AF800F0D5F800F055
:1015C00046F800F083F88048FFF7FDFCFEE700B521
:1015D00097B005A8482100F01BF96846142100F0D7
:1015E00017F94FF40070FFF7BFFB002801D000F09F
:1015F000F5F8012005905FF48030069002201090ED
:1016000003201190012012900A20139007201490BB
:10161000022015900220169005A8FEF7EBFD002889
:1016200001D000F0DBF80F20009003200190002093
:101630000290002003900020049003216846FFF7E9
:1016400061F9002801D000F0C9F817B000BD18B545
:1016500087B003A8102100F0DBF8684600210022C3
:10166000002380E80E00594C5948206041F63F7035
:1016700060600020A06041F28730E06000202061BF
:10168000002060618020A0612000FFF75FFC00283F
:1016900001D000F0A3F84FF48050039003A920007C
:1016A000FFF7F0FD002801D000F098F8002000902E
:1016B00000200190002002906946200000F0ACF864
:1016C000002801D000F08AF808B010BD18B587B026
:1016D00003A8102100F09CF8684600210022002396
:1016E00080E80E00384C5FF08040206041F63F708B
:1016F00060600020A06041F28730E060002020613F
:101700008020A0612000FFF721FC002801D000F01C
:1017100065F84FF48050039003A92000FFF7B2FD55
:10172000002801D000F05AF82000FFF796FC0028AE
:1017300001D000F053F8002000900020029069468C
:10174000200000F069F8002801D000F047F808B048
:1017500010BD80B50068B0F1804F04D14FF4007126
:101760001C4800F095F901BD10B586B001A8142100
:1017700000F04EF81848016851F0800101600168DE
:1017800011F0800100910099016851F01001016091
:10179000006810F01000009000980E4C00224FF4EA
:1017A0000071200000F06BF94FF4007001900120EF
:1017B0000290002003900020049001A9200000F076
:1017C00085F806B010BD0000580000200C00002075
:1017D000002C0140001002424C10024072B6FEE79D
:1017E000704770477047704710B500240420FFF71A
:1017F00080FB00F075F90720FFF77CFA002801D084
:10180000012401E0FFF782FE2000C0B210BD0000FD
:10181000002200F0D1B9000070B490F83C20012AF9
:1018200001D1022043E0012280F83C20022280F80E
:101830003D2002685468026893681E4D0268AA42FF
:1018400003D002681F4EB24203D134F470044A68D8
:10185000144334F070040A68144302685460026848
:10186000AA4217D00268B2F1804F13D00268124C1E
:10187000A2420FD00268114CA2420BD00268104C59
:10188000A24207D002680F4CA24203D002680E4C5D
:10189000A24205D133F0800389680B4301688B6055
:1018A000012180F83D10002180F83C10002070BC20
:1018B00070470000002C0140000400400008004078
:1018C000000C00400034014000400140F0B4020030
:1018D000002436E0072704E0DFF8C8319A42F9D146
:1018E000062714F00303DBB2DB009F403E432300D6
:1018F0009B0845F82360DFF8B0512B6883434E689E
:10190000F60200D503432B60DFF8A0512B68834318
:101910004E68B60200D503432B60DFF894512B6864
:1019200083434E68B60300D503432B60DFF8845130
:101930002B6883434E68F60301D5184303002B60E0
:10194000641C0868E040002800F0978001250868C2
:1019500015FA04F318400028F2D00B7913F00303B2
:10196000012B04D00B7913F00303022B16D19668D8
:1019700003272300DBB25B009F40BE43CF682300F8
:10198000DBB25B009F403E4396605368A540AB438B
:101990004D68C5F30015A5402B4353600B7913F038
:1019A0000303032B0DD0D56803262300DBB25B00B5
:1019B0009E40B5438E682300DBB25B009E403543FA
:1019C000D5600B7913F00303022B17D12300DB083A
:1019D00002EB83031D6A0F2614F00703DBB29B00A2
:1019E0009E40B5430E6914F00703DBB29B009E4096
:1019F00035432300DB0802EB83031D6215680326D1
:101A00002300DBB25B009E40B5430E7916F003065F
:101A10002300DBB25B009E40354315604B6813F436
:101A2000403F8DD0244D23009B0855F823600F279D
:101A300014F00303DBB2DB009F40BE431F4B9A420E
:101A400001D100274DE71E4B9A4201D1012748E7FB
:101A50001C4B9A4201D1022743E71B4B9A4201D10A
:101A600003273EE7194B9A4201D1042739E7184B67
:101A70009A427FF431AF052733E7F0BC7047D2B20A
:101A8000002A02D089B2816101E089B28162704787
:101A900042690B009BB2134089B2914351EA034162
:101AA000816170470018024200F4024004F40240D1
:101AB00084F4024080F4024060F4024000000242DC
:101AC0000004024200080242000C024200100242DE
:101AD000001402422F48016851F470010160704700
:101AE00010B42D480168090704D42C480068C0F3DD
:101AF000032002E00068C0F30310294951F82000D8
:101B000028490A6812F00C02002A06D0042A07D0DD
:101B1000082A09D00C2A0BD02FE0234A10602EE0AF
:101B20002248214A10602AE020481F4A106026E01F
:101B30001F4C226812F003022368C3F303135B1CDB
:101B4000022A02D0032A04D007E01848B0FBF3F2BF
:101B500005E01648B0FBF3F201E0B0FBF3F22068B9
:101B6000C0F3062042432068C0F34160401C40009F
:101B7000B2FBF0F00C4A106001E00B4A10600D4817
:101B80000968C1F30311405C07490A68C2400A6052
:101B900010BC704788ED00E0001002409410024035
:101BA000EC1B000808100240040000200024F40090
:101BB0000C1002405C1D000800B500BF13009646E3
:101BC0009446103928BFA0E80C50FAD85FEA417C4F
:101BD00028BF0CC048BF40F8042BC90728BF20F815
:101BE000022B48BF00F8012B00BD0000A0860100B9
:101BF000400D0300801A060000350C0040420F0023
:101C000080841E0000093D0000127A000024F400C8
:101C100000366E010048E801006CDC0200000000A4
:101C2000000000000000000000000000FEE7FEE7EA
:101C3000FEE7FEE7FEE770477047704780B500F0AB
:101C40000FF801BD80B50448FFF752FA01BD80B519
:101C50000248FFF74DFA01BD0C000020580000209B
:101C600003490A680348007882180A60704700BF79
:101C7000A40000200800002030B450F8041B79B103
:101C80000268436802440830DC0744BFA9F101043C
:101C9000E31852F8045B43F8045B091FF9D1ECE741
:101CA00030BC704710B5074979441831064C7C4464
:101CB000163404E00A68081D114488470146A14211
:101CC000F8D110BD2C0000004C0000004EF68851E9
:101CD000CEF20001086840F470000860BFF34F8F37
:101CE000BFF36F8F4FF00070E1EE100A70470000F5
:101CF000E3F7FFFF9C0000000C0000200000000044
:101D000079FFFFFF0C000000280200000000002007
:101D10000000000000F00DF8002801D0FFF7C2FF1E
:101D2000AFF300800020AFF30080FFF741FC00F02C
:101D300002F80120704700F001B80000074638465D
:101D400000F002F8FBE7000080B5AFF30080024A24
:101D500011001820ABBEFBE72600020000000000C7
:101D6000000000000102030406070809014880473B
:101D700001480047D51A00087D1D0008AFF3008018
:101D8000FFF7A4FFFFF7C6FFFFF7FEBFFFF7FEBF99
:101D9000FFF7FEBFFFF7FEBFFFF7FEBFFFF7FEBF77
:101DA000FFF7FEBFFFF7FEBFFFF7FEBFFFF7FEBF67
:101DB000FFF7FEBFFFF7FEBFFFF7FEBFFFF7FEBF57
:101DC000FFF7FEBFFFF7FEBFFFF7FEBFFFF7FEBF47
:101DD000FFF7FEBFFFF7FEBFFFF7FEBFFFF7FEBF37
:101DE000FFF7FEBFFFF7FEBFFFF7FEBFFFF7FEBF27
:101DF000FFF7FEBFFFF7FEBFFFF7FEBFFFF7FEBF17
:101E0000FFF7FEBFFFF7FEBFFFF7FEBFFFF7FEBF06
:101E1000FFF7FEBFFFF7FEBFFFF7FEBFFFF7FEBFF6
:101E2000FFF7FEBFFFF7FEBFFFF7FEBFFFF7FEBFE6
:101E3000FFF7FEBFFFF7FEBFFFF7FEBFFFF7FEBFD6
:101E4000FFF7FEBFFFF7FEBFFFF7FEBFFFF7FEBFC6
:101E5000FFF7FEBFFFF7FEBFFFF7FEBFFFF7FEBFB6
:101E6000FFF7FEBFFFF7FEBFFFF7FEBFFFF7FEBFA6
:101E7000FFF7FEBFFFF7FEBFFFF7FEBFFFF7FEBF96
:101E8000FFF7FEBFFFF7FEBFFFF7FEBFFFF7FEBF86
:101E9000FFF7FEBFFFF7FEBFFFF7FEBFFFF7FEBF76
:101EA000FFF7FEBFFFF7FEBFFFF7FEBFFFF7FEBF66
:101EB000FFF7FEBFFFF7FEBFFFF7FEBFFFF7FEBF56
:101EC000FFF7FEBFFFF7FEBFFFF7FEBFFFF7FEBF46
:101ED000FFF7FEBFFFF7FEBFFFF7FEBFFFF7FEBF36
:101EE000FFF7FEBFFFF7FEBFFFF7FEBFFFF7FEBF26
:101EF000FFF7FEBFFFF7FEBFFFF7FEBFFFF7FEBF16
:101F0000FFF7FEBFFFF7FEBFFFF7FEBFFFF7FEBF05
:101F1000FFF7FEBFFFF7FEBFFFF7FEBFFFF7FEBFF5
:101F2000FFF7FEBFFFF7FEBFFFF7FEBFFFF7FEBFE5
:0C1F30000800000000093D000100000056
:0400000508001D7D55
:00000001FF
