:020000040800F2
:10000000A8200020FD220008BD210008BF21000813
:10001000C1210008C3210008C521000819230008D8
:10002000000000000000000000000000C7210008E0
:10003000C921000800000000CB210008CD210008E4
:100040001D23000821230008252300082923000878
:100050002D23000831230008352300083923000828
:100060003D230008412300084523000849230008D8
:100070004D23000851230008552300085923000888
:100080005D23000861230008652300086923000838
:100090006D230008712300087523000879230008E8
:1000A0007D23000881230008852300088923000898
:1000B0008D23000891230008952300089923000848
:1000C0009D230008A1230008A5230008A9230008F8
:1000D000AD230008B1230008B5230008B9230008A8
:1000E000BD230008C1230008D5210008C52300084E
:1000F000C9230008DF210008CD230008D123000810
:10010000D5230008D9230008DD230008E1230008D7
:10011000E5230008E9230008ED230008F123000887
:10012000F5230008F9230008FD2300080124000836
:1001300005240008092400080D24000811240008E3
:1001400015240008192400081D2400082124000893
:1001500025240008292400082D2400083124000843
:1001600035240008392400083D24000841240008F3
:100170004524000800000000492400080000000099
:100180004D24000851240008552400085924000873
:100190005D24000861240008652400086924000823
:1001A0006D240008712400087524000879240008D3
:1001B0007D24000881240008852400088924000883
:1001C0008D24000891240008952400089924000833
:1001D0009D240008A1240008A5240008A9240008E3
:1001E000AD240008B1240008B5240008B924000893
:1001F000BD24000810B50400002C01D1012035E019
:1002000094F83D00002805D1002084F83C0020002F
:1002100000F098FD022084F83D00211D206800F0C8
:100220004DFB012084F84800012084F83E000120A5
:1002300084F83F00012084F84000012084F8410048
:10024000012084F84200012084F84300012084F852
:100250004400012084F84500012084F84600012074
:1002600084F84700012084F83D00002010BD10B53F
:100270000400002C01D1012035E094F83D00002855
:1002800005D1002084F83C00200000F091FD022000
:1002900084F83D00211D206800F010FB012084F847
:1002A0004800012084F83E00012084F83F0001202E
:1002B00084F84000012084F84100012084F84200C5
:1002C000012084F84300012084F84400012084F8D0
:1002D0004500012084F84600012084F847000120F1
:1002E00084F83D00002010BD10B50400002C01D1A1
:1002F000012035E094F83D00002805D1002084F865
:100300003C00200000F055FD022084F83D00211D36
:10031000206800F0D3FA012084F84800012084F816
:100320003E00012084F83F00012084F840000120B5
:1003300084F84100012084F84200012084F8430041
:10034000012084F84400012084F84500012084F84D
:100350004600012084F84700012084F83D00002079
:1003600010BD10B50400002902D194F83E0015E03C
:10037000042902D194F83F0010E0082902D194F832
:1003800040000BE00C2902D194F8410006E010294E
:1003900002D194F8420001E094F84300012801D012
:1003A000012087E0002904D1022084F83E00C0B279
:1003B0001FE0042904D1022084F83F00C0B218E0F5
:1003C000082904D1022084F84000C0B211E00C29B1
:1003D00004D1022084F84100C0B20AE0102904D1FF
:1003E000022084F84200C0B203E0022084F84300F7
:1003F000C0B20122206800F07AFCDFF8BC1020684F
:10040000884213D02068DFF8B42090420ED02068D4
:10041000DFF8AC20904209D02068DFF8B820904285
:1004200004D02068DFF8A820904201D1012000E02C
:100430000020C0B2002805D02068406C50F4004075
:1004400022685064206888421CD02068B0F1804F38
:1004500018D02068DFF86C10884213D02068DFF8CD
:10046000681088420ED02068DFF86010884209D0FA
:100470002068DFF84810884204D02068DFF8401078
:10048000884210D120688168DFF84C0001400629BD
:100490000FD0B1F5803F0CD02068006850F001000B
:1004A0002168086005E02068006850F001002168BC
:1004B0000860002010BD0000002C01400034014005
:1004C000004001400004004000080040000C0040D3
:1004D00000480140004401400700010010B504003D
:1004E0002068006980071AD52068C068800716D583
:1004F0007FF0020021680861012020772068806970
:1005000010F0030F03D0200000F054FC05E02000A1
:1005100000F051FC200000F04FFC00202077206804
:10052000006940071AD52068C068400716D57FF0DB
:10053000040021680861022020772068806910F497
:10054000407F03D0200000F035FC05E0200000F0E3
:1005500032FC200000F030FC002020772068006989
:1005600000071AD52068C068000716D57FF008007C
:1005700021680861042020772068C06910F0030F0B
:1005800003D0200000F016FC05E0200000F013FC72
:10059000200000F011FC0020207720680069C006D0
:1005A0001AD52068C068C00616D57FF010002168F3
:1005B0000861082020772068C06910F4407F03D0CC
:1005C000200000F0F7FB05E0200000F0F4FB200025
:1005D00000F0F2FB0020207720680069C0070AD5F0
:1005E0002068C068C00706D57FF001002168086157
:1005F000200000F0CBFC2068006900060AD52068C6
:10060000C068000606D57FF08000216808612000E0
:1006100000F002FD20680069C0050AD52068C068A6
:10062000000606D57FF4807021680861200000F084
:10063000F4FC2068006940060AD52068C0684006BE
:1006400006D57FF0400021680861200000F0E6FC3C
:100650002068006980060AD52068C068800606D533
:100660007FF0200021680861200000F0D8FC10BD58
:1006700070B504000E00002594F83C00012801D15B
:100680000220A2E0012084F83C00002A0AD0042ABB
:100690001FD0082A35D00C2A4AD0102A60D0142A3C
:1006A00075D08CE03100206800F06BF9206880691B
:1006B00050F00800216888612068806930F00400EB
:1006C00021688861206881693069014320688161FF
:1006D00076E03100206800F0A2F92068806950F4CB
:1006E0000060216888612068806930F4806021683A
:1006F000886120688069316950EA01202168886139
:100700005EE03100206800F0D2F92068C06950F046
:1007100008002168C8612068C06930F004002168C1
:10072000C8612068C169306901432068C16147E040
:100730003100206800F001FA2068C06950F40060C0
:100740002168C8612068C06930F480602168C86190
:100750002068C069316950EA01202168C8612FE032
:100760003100206800F019FA2068406D50F0080050
:10077000216848652068406D30F0040021684865B4
:100780002068416D306901432068416518E03100FF
:10079000206800F02EFA2068406D50F40060216857
:1007A00048652068406D30F48060216848652068A5
:1007B000406D316950EA01202168486500E001255B
:1007C000002084F83C002800C0B270BD38B5040099
:1007D000002594F83C00012801D102206DE00120A1
:1007E00084F83C00022084F83D0020688268DFF82D
:1007F000B804024032F47F42206882600868002812
:100800004DD010284BD0202849D0302847D0402840
:100810003BD0502825D060282DD0702807D0B0F5C7
:10082000805F03D0B0F5005F0ED03DE03DE0CB68C7
:100830004A688968206800F04FFA2068806850F0A4
:1008400077002168886030E0CB684A688968206852
:1008500000F042FA2068806850F480402168886087
:1008600023E0CA684968206800F0F0F95021206848
:1008700000F011FA19E0CA684968206800F0F8F938
:100880006021206800F007FA0FE0CA684968206814
:1008900000F0DCF94021206800F0FDF905E009686E
:1008A000206800F0F8F900E00125012084F83D00FF
:1008B000002084F83C002800C0B232BD10B40468A7
:1008C000DFF8E833984212D0B0F1804F0FD0DFF854
:1008D000E02390420BD0DFF8DC23904207D0DFF812
:1008E000D823904203D0DFF8D423904203D134F0D0
:1008F00070044A68144398421ED0B0F1804F1BD058
:10090000DFF8AC23904217D0DFF8A823904213D031
:10091000DFF8A42390420FD0DFF8A02390420BD041
:10092000DFF89C23904207D0DFF89823904203D051
:10093000DFF89423904203D134F44074CA6814431E
:1009400034F080044A69144304608A68C2620A6809
:10095000826298420FD0DFF8642390420BD0DFF818
:100960006023904207D0DFF85C23904203D0DFF889
:100970005823904201D1096901630121416110BCF2
:10098000704770B4026A520852000262056A4368F6
:100990008469DFF838231440A408A4000A681443CB
:1009A00035F002058A681543DFF80063B0420FD0C6
:1009B000DFF8082390420BD0DFF80423904207D0E1
:1009C000DFF80023904203D0DFF8FC22904205D1EB
:1009D00035F00805CA68154335F00405B0420FD05C
:1009E000DFF8D82290420BD0DFF8D422904207D013
:1009F000DFF8D022904203D0DFF8CC22904207D11A
:100A000033F4807333F400734A6913438A691343E0
:100A10004360846149684163056270BC704770B48B
:100A2000026A32F010020262056A43688469DFF8E4
:100A3000A022144034F440740A6854EA022435F0C9
:100A400020058A6855EA0215DFF86022904203D03B
:100A5000DFF86862B04206D135F08005CE6855EA0D
:100A6000061535F0400590420FD0DFF85022904235
:100A70000BD0DFF84C22904207D0DFF8482290429A
:100A800003D0DFF84422904209D133F4806333F479
:100A900000634A6953EA82038A6953EA8203436026
:100AA000846149688163056270BC7047000070B45E
:100AB000026A32F480720262056A4368C469DFF830
:100AC0000C221440A408A4000A68144335F40075ED
:100AD0008A6855EA0225DFF8D421904203D0DFF876
:100AE000DC61B04206D135F40065CE6855EA0625D2
:100AF00035F4806590420FD0DFF8C02190420BD0D2
:100B0000DFF8BC21904207D0DFF8B821904203D033
:100B1000DFF8B421904209D133F4805333F4005309
:100B20004A6953EA02138A6953EA02134360C461B3
:100B30004968C163056270BC704730B4026A32F420
:100B400080520262036A4568C469DFF88421144058
:100B500034F440740A6854EA022433F400538A6877
:100B600053EA0233514A90420BD0544A904208D083
:100B7000534A904205D0534A904202D0524A904282
:100B800004D135F480454A6955EA82154560C4614F
:100B900049680164036230BC704730B4026A32F4C1
:100BA00080320262036A4568446D484A14400A680C
:100BB000144333F400338A6853EA02433B4A9042B9
:100BC0000BD03E4A904208D03D4A904205D03D4A63
:100BD000904202D03C4A904204D135F480354A69B3
:100BE00055EA02254560446549688165036230BC69
:100BF000704730B4026A32F480120262036A4568B8
:100C0000446D334A14400A6854EA022433F4001352
:100C10008A6853EA0253254A90420BD0274A9042F1
:100C200008D0274A904205D0264A904202D0264A50
:100C3000904204D135F480254A6955EA8225456001
:100C400044654968C165036230BC704710B4046AEA
:100C5000036A5B085B000362836933F0F00353EAC5
:100C6000021334F00A0421438361016210BC70470F
:100C700010B4036A33F0100303628369046A33F427
:100C8000704353EA023334F0A00454EA0114836140
:100C9000046210BC704783680E4A134051F007018C
:100CA000194381607047000088FFCEFF002C01408F
:100CB0000004004000080040000C004000340140E7
:100CC0000040014000440140004801408FFFFEFF0A
:100CD000FF8FFFFE8FFFCFFF10B4846834F47F4492
:100CE000114351EA03212143816010BC704710B4C5
:100CF000012411F01F0314FA03F3046A34EA030316
:100D00000362036A11F01F0112FA01F11943016233
:100D100010BC704780B52348016851F001010160A3
:100D2000006810F00100009000981F48016851F021
:100D300080510160006810F080500090009800F031
:100D4000B0F901BD80B50168184A914212D1154829
:100D5000016851F400610160006810F400600090C7
:100D60000098002200212A2000F029FA2A2000F011
:100D700036FA15E00068B0F1804F11D10A480168D9
:100D800051F001010160006810F00100009000982E
:100D9000002200212D2000F012FA2D2000F01FFA71
:100DA00001BD00006010024058100240002C0140BC
:100DB0007047704770477047704730B4002513E0A4
:100DC00050F8042BD30744BFA9F101039A18091F57
:100DD000042942F8045BFAD213468C0744BF1580FD
:100DE0009B1CC90748BF1D7050F8041B0029E7D1A0
:100DF00030BC704780B500F00BFA00F00BF800F043
:100E0000D0F800F047F800F07EF800217C48FFF7AA
:100E1000A8FAFEE700B597B005A8482100F00CFA43
:100E20006846142100F008FA4FF4007000F0FEF854
:100E3000002801D000F0EEF8012005905FF480302A
:100E400006900220109003201190012012900A2099
:100E5000139007201490022015900220169005A8E8
:100E600000F0EEF9002801D000F0D4F80F20009037
:100E700003200190002002900020039000200490A5
:100E80000321684600F064FD002801D000F0C2F89C
:100E900017B000BD18B58BB007A8102100F0CCF931
:100EA00007A800210022002380E80E00544C55487A
:100EB000206041F63F7060600020A06040F2F310B7
:100EC000E06000202061002060612000FFF70CFA44
:100ED000002801D000F09EF868461C2100F0ACF913
:100EE00060200090FA2001900020029000200490E1
:100EF000002269462000FFF7BBFB002801D000F06C
:100F000089F80CB010BD18B587B003A8102100F007
:100F100093F9684600210022002380E80E003A4C35
:100F20005FF08040206041F63F7060600020A0606C
:100F300041F28730E060002020618020A061200025
:100F4000FFF758F9002801D000F064F84FF4805002
:100F5000039003A92000FFF739FC002801D000F01E
:100F600059F82000FFF783F9002801D000F052F86B
:100F700000200090002002906946200000F0E0FE72
:100F8000002801D000F046F808B010BD80B5006818
:100F9000B0F1804F04D14FF400711C4801F00CF8FF
:100FA00001BD10B586B001A8142100F045F918481C
:100FB000016851F080010160016811F08001009129
:100FC0000099016851F010010160006810F01000F4
:100FD000009000980D4C00224FF40071200000F0AA
:100FE000E2FF4FF400700190012002900020039076
:100FF0000020049001A9200000F0FCFE06B010BD06
:101000000C000020002C014058000020001002427B
:101010004C10024072B6FEE7704770477047704749
:10102000DFF8A800006810F4C060704770B50400D5
:10103000DFF89860356815F4C06500F038F8B0F551
:10104000004F01D101202BE0DFF88400006800048C
:1010500001D5012024E0A54201D1002020E0306824
:1010600030F4C06004433460DFF868000068DFF8E3
:101070006810B0FBF1F1322041430A20B1FBF0F0DF
:10108000401C00E0401EDFF854100A68520501D5EC
:101090000028F7D10868400501D5032000E00020B2
:1010A00070BD0F48016851F48041016070470D48E0
:1010B0000068C10402D54FF4805005E0000402D45A
:1010C0004FF4004000E00020704700000070004036
:1010D0000C70004004000020A08601001470004045
:1010E000087000401070004010F00700404B1A6874
:1010F0004FF6FF010A403F4951EA00210A431A60B6
:1011000070473B480068C0F302207047010049B2B5
:10111000002908D4012210F01F018A40364940B24C
:10112000400941F820207047020052B2002A04D43E
:101130004901324A40B2115407E04901304A40B2F5
:1011400010F00F00104400F8041C704710B410F0A9
:101150000700D0F10703042B01D3032301E0D0F1F2
:101160000703C41C072C01D2002000E0001F01244B
:1011700014FA03F35B1E1940814014FA00F0401E7C
:101180001040084310BC704780B5411EB1F1807F0C
:1011900001D301200EE0401E1A49086007215FF0CC
:1011A000FF30FFF7C1FF00201749086007201749EB
:1011B0000860002002BD80B5FFF796FF01BD70B545
:1011C00004000D001600FFF79CFF32002900FFF716
:1011D000BDFF0100200040B2FFF7A6FF70BD80B543
:1011E00040B2FFF793FF01BD80B5FFF7CDFF02BD11
:1011F0000CED00E00000FA0500E100E000E400E092
:1012000018ED00E014E000E018E000E010E000E07D
:1012100010B500240420FFF7CEFF00F0F5FE0720F4
:1012200000F05EFF002801D0012401E0FFF772FD0D
:101230002000C0B210BD0000002200F07FBF0000FF
:101240002DE9FC470500002D01D101204DE3DFF819
:101250008C793C6814F00C04DFF8A889D8F8006099
:1012600016F003062878C00640F1A680002C03D0B3
:101270000C2C6CD1012E6AD1DFF89C98D9F80000B3
:10128000800704D5E869002801D101202DE3D9F8B1
:101290000000000704D5D9F8000010F0F00005E0C8
:1012A000DFF864090068000910F0F000696A8842FC
:1012B0002DD2686A00F0B4FC002801D0012014E3AC
:1012C000D9F8000050F00800C9F80000D9F8001063
:1012D00031F0F001686A0143C9F80010DFF83C09F9
:1012E000016831F47F412A6A51EA0221016000F06D
:1012F00077FCDFF808190860DFF80409006800F0DF
:10130000EFFE0100C9B2002956D0C0B2EDE2D9F813
:10131000000050F00800C9F80000D9F8001031F0C2
:10132000F001686A0143C9F80010DFF8F0080168AD
:1013300031F47F412A6A51EA02210160002CD6D1A2
:10134000686A00F06DFC0028D1D00120CDE2E86988
:10135000002844D0DFF8C097D9F8000050F0010011
:10136000C9F8000000F004FF8246D9F800008007A9
:101370000BD400F0FDFEB0EB0A000328F5D3D9F83A
:1013800000008007F1D40320AFE2D9F8000050F04C
:101390000800C9F80000D9F8001031F0F001686ABF
:1013A0000143C9F80010DFF87408016831F47F4187
:1013B0002A6A51EA022101602878C0077BD5082CEF
:1013C00003D00C2C26D1032E24D1DFF84C07006863
:1013D000800370D5686800286DD1012085E2DFF8B0
:1013E0003897D9F8000040084000C9F8000000F024
:1013F000BFFE8246D9F800008007DDD500F0B8FEB8
:10140000B0EB0A000328F5D3D9F800008007F1D526
:1014100003206AE26868B0F5803F06D1DFF8F8067D
:10142000016851F48031016018E06868B0F5A02FC0
:101430000AD1DFF8E406016851F4802101600168F7
:1014400051F48031016009E0DFF8CC06016831F425
:1014500080310160016831F48021016068680028F2
:1014600014D000F085FE8146DFF8ACA6DAF8000063
:10147000800320D400F07CFEB0EB09006528F3D394
:10148000DAF800008003EFD403202EE200F070FEB3
:101490008146DFF884A6DAF8000080030BD500F05F
:1014A00067FEB0EB09006528F3D3DAF8000080038B
:1014B000EFD5032019E22878800718D5042C03D033
:1014C0000C2C24D1022E22D1DFF84C0600684005F6
:1014D00004D5E868002801D1012006E2DFF83C07C6
:1014E000016831F0FE412A6951EA02610160287801
:1014F000000777D5686900285ED0A86900283FD129
:10150000DFF80407016831F0100101603EE0E8688F
:1015100000281FD0DFF80046206850F4807020605B
:1015200000F026FE06002068400509D400F020FEE9
:10153000801B0328F7D320684005F4D40320D4E1AE
:10154000DFF8D806016831F0FE412A6951EA0261EC
:101550000160CCE7DFF8C045206830F4807020607F
:1015600000F006FE060020684005C0D500F000FE31
:10157000801B0328F7D320684005F4D50320B4E18D
:10158000DFF88406016851F010010160DFF8784649
:10159000206850F00100206000F0EAFD060020689D
:1015A00080071FD400F0E4FD801B0828F7D32068D3
:1015B0008007F4D4032098E1DFF84C462068400807
:1015C0004000206000F0D4FD06002068800709D5A7
:1015D00000F0CEFD801B0828F7D320688007F4D5E3
:1015E000032082E12878400740F1D8800026DFF808
:1015F00020462068C00009D4206850F08050206048
:10160000206810F08050009000980126DFF80496C2
:10161000D9F80000C00518D4D9F8000050F4807043
:10162000C9F8000000F0A4FD8246D9F80000C0050A
:101630000BD400F09DFDB0EB0A000328F5D3D9F8D8
:101640000000C005F1D403204FE1287AC00714D56B
:10165000287A40070AD5DFF8C005016851F0040177
:101660000160016851F00101016010E0DFF8A80598
:10167000016851F00101016009E0DFF89C05016893
:10168000490849000160016831F004010160A8685F
:10169000002849D000F06CFD8146DFF87CA5DAF81F
:1016A000000080070DD400F063FDB0EB090041F2AB
:1016B00089318842F1D3DAF800008007EDD40320A5
:1016C00013E1287A000617D5DAF8000050F0800000
:1016D000CAF80000DAF80000000558D400F048FD10
:1016E000B0EB090041F289318842F3D3DAF8000007
:1016F0000005EFD40320F8E0DAF8000030F08000B5
:10170000CAF80000DAF80000000540D500F030FD0E
:10171000B0EB090041F289318842F3D3DAF80000D6
:101720000005EFD50320E0E000F022FD8146DFF860
:10173000E8A4DAF8000080070DD500F019FDB0EB41
:10174000090041F289318842F1D3DAF800008007BC
:10175000EDD50320C9E0DAF80000000617D5DAF865
:10176000000030F08000CAF80000DAF80000000540
:101770000DD500F0FDFCB0EB090041F28931884243
:10178000F3D3DAF800000005EFD50320ADE0F6B2A0
:10179000012E03D1206830F0805020602878800628
:1017A0002ED5A86A002815D0DFF86044206850F0D4
:1017B0000100206000F0DCFC0600206880071FD4D8
:1017C00000F0D6FC801B0328F7D320688007F4D4F0
:1017D00003208AE0DFF8344420684008400020609D
:1017E00000F0C6FC06002068800709D500F0C0FCA8
:1017F000801B0328F7D320688007F4D5032074E00A
:10180000E86A002870D0386810F00C000C286ED000
:10181000E86A02284CD1DFF80043206830F080707D
:10182000206000F0A5FC06002068800109D500F0CA
:101830009FFC801B0328F7D320688001F4D5032088
:1018400053E0D8F80010DFF8C8040140286B0143CA
:10185000686B401E51EA0011A86B51EA0021286C08
:101860004008401E51EA4051686C4008401E51EA51
:101870004061E86B51EAC061C8F80010206850F080
:1018800080702060D8F8000050F08070C8F8000028
:1018900000F06EFC05002068800125D400F068FC93
:1018A000401B0328F7D320688001F4D403201CE0F8
:1018B000994D286830F08070286000F059FC0400D1
:1018C0002868800109D500F053FC001B0328F7D3DA
:1018D00028688001F4D5032007E0D8F80010DFF86D
:1018E00034040140C8F800100020BDE8F687E86A1B
:1018F000012801D10120F8E7D8F8000010F0030119
:101900002A6B914222D110F0F0016A6B521EB1EBAA
:10191000021F1BD110F4FE41AA6BB1EB022F15D1AF
:1019200010F07841EA6BB1EBC26F0FD110F4C00137
:101930002A6C5208521EB1EB425F07D110F0C06012
:10194000696C4908491EB0EB416FCDD00120CCE74E
:101950002DE9F84304000F000025002C01D10120DF
:10196000D7E0DFF8B463306810F00F00B8420BD254
:1019700030680009000138433060306810F00F0013
:10198000B84201D00120C4E0207880070CD59349EB
:10199000086810F0F000A268904205D20A6832F0A0
:1019A000F002A06802430A602078C0076CD5606826
:1019B000032818D158480068800101D40120A8E00C
:1019C00000F06EF9DFF85413884236D3834801687B
:1019D00011F0F00F31D1016831F0F00151F08001C8
:1019E0000160802529E06068022805D14A48006826
:1019F000800310D401208CE06068002805D146489F
:101A00000068800707D4012083E043480068400550
:101A100001D401207DE000F081F8DFF80013884256
:101A20000BD36E48016811F0F00F06D1016831F058
:101A3000F00151F0800101608025DFF8A081D8F825
:101A400000108908890060680143C8F8001000F0A0
:101A50008FFB8146D8F8000010F00C006168B0EBF5
:101A6000810F11D000F084FBB0EB090041F2893105
:101A70008842EFD3D8F8000010F00C006168B0EB9A
:101A8000810FE7D0032044E0802D04D15348016842
:101A900031F0F0010160207880070CD54F49A06833
:101AA0000A6812F0F002904205D20A6832F0F002A1
:101AB000A06802430A60306810F00F0087420BD222
:101AC00030680009000138433060306810F00F00C2
:101AD000B84201D001201CE02078400706D53F49DC
:101AE0000A6832F4E062E06802430A602078000786
:101AF00007D53A48016831F46051226951EAC201C0
:101B0000016000F06DF83D4908603D48006800F054
:101B1000E7FABDE8F28300000010024010B4002391
:101B200000212E48006810F00C00364A146814F0AA
:101B30000304002803D00C2816D1012C14D1DFF89F
:101B4000E4311C68240704D42F4B1B68C3F3032320
:101B500002E01B68C3F30313DFF8CC4154F82330D1
:101B600000280AD1190008E0042802D1DFF8BC11CE
:101B700003E0082801D1DFF8B4110C282AD110683D
:101B800010F003001168C1F30311491C022802D0B0
:101B9000032809D011E0DFF89401B0FBF1F11068DF
:101BA000C0F3062041430EE0DFF88001B0FBF1F105
:101BB0001068C0F30620414305E0B3FBF1F1106863
:101BC000C0F3062041431068C0F34160401C400050
:101BD000B1FBF0F1080010BC704700000810024093
:101BE00080B5FFF79BFFDFF84811DFF8342112685A
:101BF000C2F30312895CC84002BD0000040000204B
:101C0000000000200C100240941002409810024086
:101C10005810024000700040901002400410024032
:101C20007CB505000024454E3068C00002D5FFF7A2
:101C3000F7F90EE0306850F080503060306810F0F6
:101C4000805000900098FFF7EBF9316831F0805137
:101C50003160002802D0B0F5007F07D1812D10D36C
:101C6000A12D01D302240CE001240AE0812D01D32F
:101C7000032406E0802D01D1022402E0702D00D162
:101C80000124254801680909090121430160006810
:101C900010F00F00A04201D0012000E0002076BD2E
:101CA00025490A6812F003020868C0F30310401CBB
:101CB000012A13D022D3032A08D01FD21B4AB2FB19
:101CC000F0F20868C0F30620424318E0174AB2FB5E
:101CD000F0F20868C0F30620424310E011480268A1
:101CE000120704D413480068C0F3032002E0006820
:101CF000C0F303100C4A52F8202000E000220868CC
:101D0000C0F34160401C4000B2FBF0F0704700009F
:101D10000C809F01FCFFEEFE0020024001B4C404D1
:101D200008100240001002407C2100080024F4004A
:101D3000EC220008941002400C100240581002409F
:101D400070B490F83C20012A01D1022043E0012226
:101D500080F83C20022280F83D2002685468026826
:101D600093681E4D0268AA4203D002681F4EB24219
:101D700003D134F470044A68144334F070040A68E0
:101D80001443026854600268AA4217D00268B2F194
:101D9000804F13D00268124CA2420FD00268114C3F
:101DA000A2420BD00268104CA24207D002680F4C2E
:101DB000A24203D002680E4CA24205D133F0800348
:101DC00089680B4301688B60012180F83D10002178
:101DD00080F83C10002070BC70470000002C0140CF
:101DE0000004004000080040000C004000340140A6
:101DF00000400140F0B40200002436E0072704E070
:101E0000DFF8C8319A42F9D1062714F00303DBB298
:101E1000DB009F403E4323009B0845F82360DFF82A
:101E2000B0512B6883434E68F60200D503432B6004
:101E3000DFF8A0512B6883434E68B60200D50343F8
:101E40002B60DFF894512B6883434E68B60300D5AE
:101E500003432B60DFF884512B6883434E68F603FD
:101E600001D5184303002B60641C0868E04000287B
:101E700000F097800125086815FA04F3184000283F
:101E8000F2D00B7913F00303012B04D00B7913F07C
:101E90000303022B16D1966803272300DBB25B00F5
:101EA0009F40BE43CF682300DBB25B009F403E43B0
:101EB00096605368A540AB434D68C5F30015A54037
:101EC0002B4353600B7913F00303032B0DD0D5681C
:101ED00003262300DBB25B009E40B5438E682300DF
:101EE000DBB25B009E403543D5600B7913F00303F2
:101EF000022B17D12300DB0802EB83031D6A0F2698
:101F000014F00703DBB29B009E40B5430E6914F04A
:101F10000703DBB29B009E4035432300DB0802EB46
:101F200083031D62156803262300DBB25B009E401D
:101F3000B5430E7916F003062300DBB25B009E402A
:101F4000354315604B6813F4403F8DD0244D23007A
:101F50009B0855F823600F2714F00303DBB2DB0066
:101F60009F40BE431F4B9A4201D100274DE71E4BB5
:101F70009A4201D1012748E71C4B9A4201D102271E
:101F800043E71B4B9A4201D103273EE7194B9A4284
:101F900001D1042739E7184B9A427FF431AF052766
:101FA00033E7F0BC7047D2B2002A02D089B2816117
:101FB00001E089B28162704742690B009BB2134015
:101FC00089B2914351EA034181617047001802428E
:101FD00000F4024004F4024084F4024080F4024021
:101FE00060F4024000000242000402420008024283
:101FF000000C024200100242001402422F48016805
:1020000051F470010160704710B42D480168090750
:1020100004D42C480068C0F3032002E00068C0F339
:102020000310294951F8200028490A6812F00C02CF
:10203000002A06D0042A07D0082A09D00C2A0BD07F
:102040002FE0234A10602EE02248214A10602AE047
:1020500020481F4A106026E01F4C226812F003023D
:102060002368C3F303135B1C022A02D0032A04D0A3
:1020700007E01848B0FBF3F205E01648B0FBF3F2B6
:1020800001E0B0FBF3F22068C0F306204243206871
:10209000C0F34160401C4000B2FBF0F00C4A1060FD
:1020A00001E00B4A10600D480968C1F30311405C60
:1020B00007490A68C2400A6010BC704788ED00E01A
:1020C00000100240941002407C21000808100240D9
:1020D000040000200024F4000C100240EC22000850
:1020E00038B5040000251249087800281BD04FF4A9
:1020F0007A700978B0FBF1F00E490968B1FBF0F095
:10210000FFF772F800280CD1082C08D20022210019
:102110005FF0FF30FFF753F80748046004E0012543
:1021200002E0012500E001252800C0B232BD00BF59
:1021300008000020040000200000002000B500BFBF
:10214000130096469446103928BFA0E80C50FAD8E0
:102150005FEA417C28BF0CC048BF40F8042BC90788
:1021600028BF20F8022B48BF00F8012B00BD00005B
:1021700001480068704700BFA4000020A08601004D
:10218000400D0300801A060000350C0040420F008D
:1021900080841E0000093D0000127A000024F40033
:1021A00000366E010048E801006CDC02000000000F
:1021B000000000000000000000000000FEE7FEE755
:1021C000FEE7FEE7FEE770477047704780B500F016
:1021D0000FF801BD80B50448FEF780F901BD80B558
:1021E0000248FEF77BF901BD0C00002058000020DA
:1021F00003490A680348007882180A60704700BFE4
:10220000A40000200800002030B450F8041B79B16D
:102210000268436802440830DC0744BFA9F10104A6
:10222000E31852F8045B43F8045B091FF9D1ECE7AB
:1022300030BC704710B5074979441831064C7C44CE
:10224000163404E00A68081D114488470146A1427B
:10225000F8D110BD2C0000004C0000004EF6885153
:10226000CEF20001086840F470000860BFF34F8FA1
:10227000BFF36F8F4FF00070E1EE100A704700005F
:102280003BEBFFFF9C0000000C0000200000000062
:1022900079FFFFFF0C000000280200000000002072
:1022A0000000000000F00DF8002801D0FFF7C2FF89
:1022B000AFF300800020AFF30080FEF79BFD00F03D
:1022C00002F80120704700F001B8000007463846C8
:1022D00000F002F8FBE7000080B5AFF30080024A8F
:1022E00011001820ABBEFBE7260002000000000032
:1022F00000000000010203040607080901488047A6
:1023000001480047FD1F00080D230008AFF30080BF
:10231000FFF7A4FFFFF7C6FFFFF7FEBFFFF7FEBF03
:10232000FFF7FEBFFFF7FEBFFFF7FEBFFFF7FEBFE1
:10233000FFF7FEBFFFF7FEBFFFF7FEBFFFF7FEBFD1
:10234000FFF7FEBFFFF7FEBFFFF7FEBFFFF7FEBFC1
:10235000FFF7FEBFFFF7FEBFFFF7FEBFFFF7FEBFB1
:10236000FFF7FEBFFFF7FEBFFFF7FEBFFFF7FEBFA1
:10237000FFF7FEBFFFF7FEBFFFF7FEBFFFF7FEBF91
:10238000FFF7FEBFFFF7FEBFFFF7FEBFFFF7FEBF81
:10239000FFF7FEBFFFF7FEBFFFF7FEBFFFF7FEBF71
:1023A000FFF7FEBFFFF7FEBFFFF7FEBFFFF7FEBF61
:1023B000FFF7FEBFFFF7FEBFFFF7FEBFFFF7FEBF51
:1023C000FFF7FEBFFFF7FEBFFFF7FEBFFFF7FEBF41
:1023D000FFF7FEBFFFF7FEBFFFF7FEBFFFF7FEBF31
:1023E000FFF7FEBFFFF7FEBFFFF7FEBFFFF7FEBF21
:1023F000FFF7FEBFFFF7FEBFFFF7FEBFFFF7FEBF11
:10240000FFF7FEBFFFF7FEBFFFF7FEBFFFF7FEBF00
:10241000FFF7FEBFFFF7FEBFFFF7FEBFFFF7FEBFF0
:10242000FFF7FEBFFFF7FEBFFFF7FEBFFFF7FEBFE0
:10243000FFF7FEBFFFF7FEBFFFF7FEBFFFF7FEBFD0
:10244000FFF7FEBFFFF7FEBFFFF7FEBFFFF7FEBFC0
:10245000FFF7FEBFFFF7FEBFFFF7FEBFFFF7FEBFB0
:10246000FFF7FEBFFFF7FEBFFFF7FEBFFFF7FEBFA0
:10247000FFF7FEBFFFF7FEBFFFF7FEBFFFF7FEBF90
:10248000FFF7FEBFFFF7FEBFFFF7FEBFFFF7FEBF80
:10249000FFF7FEBFFFF7FEBFFFF7FEBFFFF7FEBF70
:1024A000FFF7FEBFFFF7FEBFFFF7FEBFFFF7FEBF60
:1024B000FFF7FEBFFFF7FEBFFFF7FEBFFFF7FEBF50
:0C24C0000800000000093D0001000000C1
:040000050800230DBF
:00000001FF
